:020000040000FA
:0400000007EF00F016
:0A0008005D8281ED20F065EF1EF02F
:1008000000269E783EEEE9913E13CECC3EAAAA2A5F
:100810003FD1F717378071313FE00F80402010083B
:1008200004020100804020100804020180401008EA
:1008300004022001686858006868640068686900FC
:1008400068686E0068686F0068687500686878009E
:100850002564007A58007A64007A69007A6E007A1A
:090860006F007A75007A7800003F
:10086A0047C0D9FF48C0DAFFDECFF6FFDDCFF7FF7A
:10087A000800F550250AD8A4D6EF0AF047C0D9FFD8
:10088A0048C0DAFFDE2A000EDD22000E0001F56FF5
:10089A00000EF46FF4C05BF0F5C05CF0F669F7691E
:1008AA00000E636F000E14D05B8047C0D9FF48C0AA
:1008BA00DAFFDE2A000EDD222ED05B82F6D75B84B9
:1008CA00F4D75B86F2D75B88F0D7000E636F010E10
:1008DA00626F21D047C0D9FF48C0DAFFDECFF6FFEA
:1008EA00DDCFF7FF0800F5504B6E4C6A4C50000AFA
:1008FA00D8A4EBD74B50200AD8B4E3D7030AD8B40C
:10090A00E2D7080AD8B4DBD7060AD8B4CDD71D0A6D
:10091A00D8B4D3D7DAD762516311D8B4DBD75BB076
:10092A005B9247C0D9FF48C0DAFFDECFF6FFDDCFC2
:10093A00F7FF0800F5502A0AD8A423D047C0D9FFE8
:10094A0048C0DAFFDE2A000EDD2249C0D9FF4AC0BC
:10095A00DAFFDFCF4BF0020EDE26DFCF4CF0000EBF
:10096A00DD224BC0D9FF4CC0DAFFDECFF4F0DDCF79
:10097A00F5F0F5AF40D05B80F46DF51FD8B0F52BDC
:10098A003AD047C0D9FF48C0DAFFDECF0AF0DDCF40
:10099A000BF031EC18F00AC0F4F00BC0F5F007D0F8
:1009AA0047C0D9FF48C0DAFFDE2A000EDD22D00E8A
:1009BA004B6EFF0E4C6E47C0D9FF48C0DAFFDECF40
:1009CA00F6FFDDCFF7FF0800F5504D6E4E6A4B502B
:1009DA004D264C504E224E5006E10A0E4D5CD8B0C0
:1009EA0002D0010E01D0000E0001646F656B6451E4
:1009FA006511D8A4D5D747C0D9FF48C0DAFFDECFE2
:100A0A00F6FFDDCFF7FF0800F5502E0AD8A46ED006
:100A1A00000EF76F000EF66F47C0D9FF48C0DAFF25
:100A2A00DE2A000EDD2247C0D9FF48C0DAFFDECF3A
:100A3A00F6FFDDCFF7FF0800F5502A0AD8A41CD02C
:100A4A0047C0D9FF48C0DAFFDE2A000EDD2249C0BE
:100A5A00D9FF4AC0DAFFDFCF4BF0020EDE26DFCF26
:100A6A004CF0000EDD224BC0D9FF4CC0DAFFDECFBE
:100A7A00F6F0DDCFF7F03AD047C0D9FF48C0DAFF29
:100A8A00DECF0AF0DDCF0BF031EC18F00AC0F6F039
:100A9A000BC0F7F007D047C0D9FF48C0DAFFDE2AFB
:100AAA00000EDD22D00E4B6EFF0E4C6E47C0D9FFF2
:100ABA0048C0DAFFDECFF6FFDDCFF7FF0800F550BA
:100ACA004D6E4E6A4B504D264C504E224E5006E10A
:100ADA000A0E4D5CD8B002D0010E01D0000E000102
:100AEA00666F676B66516711D8A4D5D747C0D9FF1F
:100AFA0048C0DAFFDECFF6FFDDCFF7FF0800F5507A
:100B0A00630AD8A426D047C0D9FF48C0DAFFDE2A34
:100B1A00000EDD2249C0D9FF4AC0DAFFDFCF4BF011
:100B2A00020EDE26DFCF4CF0000EDD224BC0D9FFCD
:100B3A004CC0DAFFDF50726F45C01EF046C01FF08E
:100B4A0072C020F0C4EC1EF01EC045F01FC046F073
:100B5A00120047C0D9FF48C0DAFFDECF03F0DDCF6D
:100B6A0004F0380E056E080E066E000E086E030EAF
:100B7A00076E75EC1DF003500410D8B416D047C0A8
:100B8A00D9FF48C0DAFFDECF03F0DDCF04F03C0E18
:100B9A00056E080E066E000E086E030E076E75ECE3
:100BAA001DF003500410D8A440D0030E47C0D9FF4B
:100BBA0048C0DAFFDE26000EDD2249C0D9FF4AC04E
:100BCA00DAFFDFCF4BF0020EDE26DFCF4CF0000E4D
:100BDA00DD224BC0D9FF4CC0DAFFDF500001686F3D
:100BEA00000E68BFFF0E696F6A6F6B6F6C6F6D6F77
:100BFA006E6F6F6F45C01EF046C01FF068C020F0D0
:100C0A0069C021F06AC022F06BC023F06CC024F0E6
:100C1A006DC025F06EC026F06FC027F0DCEC12F034
:100C2A001EC045F01FC046F0120047C0D9FF48C099
:100C3A00DAFFDECF03F0DDCF04F0390E056E080EC1
:100C4A00066E000E086E020E076E75EC1DF003505C
:100C5A000410D8B416D047C0D9FF48C0DAFFDECF97
:100C6A0003F0DDCF04F03D0E056E080E066E000E91
:100C7A00086E020E076E75EC1DF003500410D8A41E
:100C8A0007D0020E47C0D9FF48C0DAFFDE261FD0C0
:100C9A0047C0D9FF48C0DAFFDECFF6FFDDCFF7FF46
:100CAA000800F550640AD8B40DD047C0D9FF48C02F
:100CBA00DAFFDECFF6FFDDCFF7FF0800F550690A4D
:100CCA00D8A420D047C0D9FF48C0DAFFDE2A000ED8
:100CDA00DD2249C0D9FF4AC0DAFFDFCF4BF0020E4E
:100CEA00DE26DFCF4CF0000EDD224BC0D9FF4CC010
:100CFA00DAFFDECF68F0DDCF69F00001000E69BFD0
:100D0A00FF0E72D747C0D9FF48C0DAFFDECF03F023
:100D1A00DDCF04F0560E056E080E066E000E086E44
:100D2A00020E076E75EC1DF003500410D8B416D0ED
:100D3A0047C0D9FF48C0DAFFDECF03F0DDCF04F0A9
:100D4A00590E056E080E066E000E086E020E076E2C
:100D5A0075EC1DF003500410D8A428D0020E47C029
:100D6A00D9FF48C0DAFFDE26000EDD2249C0D9FFCE
:100D7A004AC0DAFFDFCF4BF0020EDE26DFCF4CF09F
:100D8A00000EDD224BC0D9FF4CC0DAFFDECF4DF09A
:100D9A00DDCF4EF04DC068F04EC069F000016A6BBD
:100DAA006B6B6C6B6D6B6E6B6F6B24D747C0D9FF27
:100DBA0048C0DAFFDECF03F0DDCF04F0440E056E43
:100DCA00080E066E000E086E030E076E75EC1DF017
:100DDA0003500410D8A43FD0030E47C0D9FF48C01F
:100DEA00DAFFDE26000EDD2249C0D9FF4AC0DAFF4B
:100DFA00DFCF4BF0020EDE26DFCF4CF0000EDD22F5
:100E0A004BC0D9FF4CC0DAFFDF504D6E4D50000188
:100E1A00736F746B756B766B776B786B796B7A6BB8
:100E2A0045C01EF046C01FF073C020F074C021F008
:100E3A0075C022F076C023F077C024F078C025F080
:100E4A0079C026F07AC027F0CDEC16F01EC045F026
:100E5A001FC046F0120047C0D9FF48C0DAFFDECFF4
:100E6A0003F0DDCF04F0450E056E080E066E000E87
:100E7A00086E020E076E75EC1DF003500410D8B40C
:100E8A0029D047C0D9FF48C0DAFFDECFF6FFDDCF51
:100E9A00F7FF0800F5506F0AD8A406D047C0D9FF5B
:100EAA0048C0DAFFDE2A1CD047C0D9FF48C0DAFFA3
:100EBA00DECF03F0DDCF04F05F0E056E080E066E7E
:100ECA00000E086E020E076E75EC1DF0035004103A
:100EDA00D8A422D0020E47C0D9FF48C0DAFFDE26C6
:100EEA00000EDD2249C0D9FF4AC0DAFFDFCF4BF03E
:100EFA00020EDE26DFCF4CF0000EDD224BC0D9FFFA
:100F0A004CC0DAFFDECF4DF0DDCF4EF04DC073F0AE
:100F1A004EC074F000017ED747C0D9FF48C0DAFF3F
:100F2A00DECF03F0DDCF04F0400E056E080E066E2C
:100F3A00000E086E030E076E75EC1DF003500410C8
:100F4A00D8A427D0030E47C0D9FF48C0DAFFDE264F
:100F5A00000EDD2249C0D9FF4AC0DAFFDFCF4BF0CD
:100F6A00020EDE26DFCF4CF0000EDD224BC0D9FF89
:100F7A004CC0DAFFDECF70F0DDCF71F070C0D9FF60
:100F8A0071C0DAFFF2C0DFFF000E466E000E456E3A
:100F9A00120047C0D9FF48C0DAFFDECF03F0DDCF29
:100FAA0004F0410E056E080E066E000E086E020E63
:100FBA00076E75EC1DF003500410D8A40AD032D085
:100FCA0070C0D9FF71C0DAFFF2C0DEFFF3C0DDFFE7
:100FDA00DBD747C0D9FF48C0DAFFDECFF6FFDDCF47
:100FEA00F7FF0800F5506E0AD8A406D047C0D9FF0B
:100FFA0048C0DAFFDE2A1CD047C0D9FF48C0DAFF52
:10100A00DECF03F0DDCF04F05C0E056E080E066E2F
:10101A00000E086E020E076E75EC1DF003500410E8
:10102A00D8A41DD0020E47C0D9FF48C0DAFFDE2679
:10103A00000EDD2249C0D9FF4AC0DAFFDFCF4BF0EC
:10104A00020EDE26DFCF4CF0000EDD224BC0D9FFA8
:10105A004CC0DAFFDECF70F0DDCF71F0B1D747C0F8
:10106A00D9FF48C0DAFFDECFF6FFDDCFF7FF080071
:10107A00F550700AD8A443D047C0D9FF48C0DAFF58
:10108A00DE2A000EDD2249C0D9FF4AC0DAFFDFCFCF
:10109A004BF0020EDE26DFCF4CF0000EDD224BC0F5
:1010AA00D9FF4CC0DAFFDECF4DF0DDCF4EF04DC098
:1010BA0073F04EC074F00001756B766B776B786BCA
:1010CA00796B7A6B45C01EF046C01FF073C020F0E2
:1010DA0074C021F075C022F076C023F077C024F0E6
:1010EA0078C025F079C026F07AC027F0780E286EED
:1010FA00FEEC13F01EC045F01FC046F0120047C0B8
:10110A00D9FF48C0DAFFDECFF6FFDDCFF7FF0800D0
:10111A00F550730AD8A42AD047C0D9FF48C0DAFFCD
:10112A00DE2A000EDD2249C0D9FF4AC0DAFFDFCF2E
:10113A004BF0020EDE26DFCF4CF0000EDD224BC054
:10114A00D9FF4CC0DAFFDECF60F0DDCF61F045C0D9
:10115A000CF046C00DF060C00EF061C00FF071ECEB
:10116A0019F00CC045F00DC046F0120047C0D9FF77
:10117A0048C0DAFFDECF03F0DDCF04F0480E056E7B
:10118A00080E066E000E086E030E076E75EC1DF053
:10119A0003500410D8A43FD0030E47C0D9FF48C05B
:1011AA00DAFFDE26000EDD2249C0D9FF4AC0DAFF87
:1011BA00DFCF4BF0020EDE26DFCF4CF0000EDD2231
:1011CA004BC0D9FF4CC0DAFFDF504D6E4D500001C5
:1011DA00736F746B756B766B776B786B796B7A6BF5
:1011EA0045C01EF046C01FF073C020F074C021F045
:1011FA0075C022F076C023F077C024F078C025F0BD
:10120A0079C026F07AC027F0F5EC15F01EC045F03B
:10121A001FC046F0120047C0D9FF48C0DAFFDECF30
:10122A0003F0DDCF04F0490E056E080E066E000EBF
:10123A00086E020E076E75EC1DF003500410D8B448
:10124A0029D047C0D9FF48C0DAFFDECFF6FFDDCF8D
:10125A00F7FF0800F550750AD8A406D047C0D9FF91
:10126A0048C0DAFFDE2A1CD047C0D9FF48C0DAFFDF
:10127A00DECF03F0DDCF04F0620E056E080E066EB7
:10128A00000E086E020E076E75EC1DF00350041076
:10129A00D8A422D0020E47C0D9FF48C0DAFFDE2602
:1012AA00000EDD2249C0D9FF4AC0DAFFDFCF4BF07A
:1012BA00020EDE26DFCF4CF0000EDD224BC0D9FF36
:1012CA004CC0DAFFDECF4DF0DDCF4EF04DC073F0EB
:1012DA004EC074F000017ED747C0D9FF48C0DAFF7C
:1012EA00DECF03F0DDCF04F04C0E056E080E066E5D
:1012FA00000E086E030E076E75EC1DF00350041005
:10130A00D8B416D047C0D9FF48C0DAFFDECF03F001
:10131A00DDCF04F0340E056E080E066E000E086E60
:10132A00030E076E75EC1DF003500410D8A454D0B8
:10133A0047C0D9FF48C0DAFFDECF4BF0DDCF4CF013
:10134A00020E4B26000E4C224BC0F6FF4CC0F7FF94
:10135A000800F5CF72F0030E47C0D9FF48C0DAFF84
:10136A00DE26000EDD2249C0D9FF4AC0DAFFDFCFF0
:10137A004BF0020EDE26DFCF4CF0000EDD224BC012
:10138A00D9FF4CC0DAFFDF504D6E4D500001736F2C
:10139A00746B756B766B776B786B796B7A6B45C010
:1013AA001EF046C01FF073C020F074C021F075C053
:1013BA0022F076C023F077C024F078C025F079C0F7
:1013CA0026F07AC027F072C028F0FEEC13F01EC097
:1013DA0045F01FC046F0120047C0D9FF48C0DAFFE7
:1013EA00DECF03F0DDCF04F04D0E056E080E066E5B
:1013FA00000E086E020E076E75EC1DF00350041005
:10140A00D8B488D047C0D9FF48C0DAFFDECF03F08E
:10141A00DDCF04F0350E056E080E066E000E086E5E
:10142A00020E076E75EC1DF003500410D8A41BD0F1
:10143A0071D049C0D9FF4AC0DAFFDFCF4BF0020EA4
:10144A00DE26DFCF4CF0000EDD224BC0D9FF4CC0A8
:10145A00DAFFDECF4DF0DDCF4EF04DC073F04EC057
:10146A0074F0000196D747C0D9FF48C0DAFFDECF33
:10147A00F6FFDDCFF7FF0800F550780AD8B40DD093
:10148A0047C0D9FF48C0DAFFDECFF6FFDDCFF7FF4E
:10149A000800F550580AD8A411D047C0D9FF48C04F
:1014AA00DAFFDECFF6FFDDCFF7FF0800F5CF72F0E7
:1014BA0047C0D9FF48C0DAFFDE2A45D047C0D9FF66
:1014CA0048C0DAFFDECF03F0DDCF04F0650E056E0B
:1014DA00080E066E000E086E020E076E75EC1DF001
:1014EA0003500410D8B416D047C0D9FF48C0DAFF59
:1014FA00DECF03F0DDCF04F0530E056E080E066E44
:10150A00000E086E020E076E75EC1DF003500410F3
:10151A00D8A41CD047C0D9FF48C0DAFFDECF4BF0B1
:10152A00DDCF4CF0010E4B26000E4C224BC0F6FFCD
:10153A004CC0F7FF0800F5CF72F0020E47C0D9FF82
:10154A0048C0DAFFDE26000EDD2273D747C0D9FF76
:10155A0048C0DAFFDECFF6FFDDCFF7FF0800F5500F
:10156A00250AD8A416D047C0D9FF48C0DAFFDE2A18
:10157A00000EDD22000E046E250E036E45C005F036
:10158A0046C006F0CAEC1DF0000E466E010E456E0E
:10159A00120047C0D9FF48C0DAFFDE2A000EDD225A
:1015AA00F3D447C0D9FF48C0DAFFDECFF6FFDDCF5C
:1015BA00F7FF0800F550036E046A45C005F046C0FF
:1015CA0006F0CAEC1DF047C0D9FF48C0DAFFDE2A90
:1015DA00000EDD22D9D7EAC0A0F0EBC0A1F0ECC022
:1015EA00A2F0EDC0A3F060C0A0F061C0A1F062C09B
:1015FA00A2F063C0A3F0A0C0A8F0A1C0A9F0A2C045
:10160A00AAF0A3C0ABF0000E0001876F000E866F30
:10161A00AB5104E1800EAA5DD8A017D0A8C064F02F
:10162A00A9C065F0AAC066F0ABC067F0200E05D06D
:10163A00D8906733663365336433E82EF9D764513B
:10164A00651166116711D8B4AFD0D890A835646F08
:10165A00A935656FAA35666FAB35676F6451651139
:10166A0066116711D8A42DD0000E426E000E436E8B
:10167A00800E446EBF0E456E60C015F061C016F054
:10168A0062C017F063C018F060C011F061C012F0B8
:10169A0062C013F063C014F069EC0EF011C046F09A
:1016AA0012C047F013C048F014C049F098EC11F08A
:1016BA0042C060F043C061F044C062F045C063F0CC
:1016CA001200A8C064F0A9C065F0AAC066F0ABC059
:1016DA0067F0200E05D0D8906733663365336433DC
:1016EA00E82EF9D76451651166116711D8B42DD067
:1016FA0060C03EF061C03FF062C040F063C041F09C
:10170A0060C03AF061C03BF062C03CF063C03DF09B
:10171A0011EC1FF03AC042F03BC043F03CC044F029
:10172A003DC045F0000E466E000E476E000E486E34
:10173A00000E496E98EC11F042C060F043C061F0AF
:10174A0044C062F045C063F01200E70E8627FF0E20
:10175A00872360C011F061C012F062C013F063C049
:10176A0014F0000E156E000E166E000E176E4C0E5B
:10177A00186E69EC0EF011C060F012C061F013C06F
:10178A0062F014C063F060C0A0F061C0A1F062C052
:10179A00A2F063C0A3F0A0C0A8F0A1C0A9F0A2C0A3
:1017AA00AAF0A3C0ABF021D0800EAA5D7F0EAB5980
:1017BA00D8A009D060C060F061C061F062C062F078
:1017CA0063C063F01200800EAA190FE13F0EAB1935
:1017DA00A811A911D8A409D0000E606F000E616F7C
:1017EA00000E626F000E636F12000D0E0001A82733
:1017FA00FB0EA9234A0EAA23000EAB23810E646FA7
:10180A00FF0E656FA8C066F0A9C067F0AAC068F0AD
:10181A00ABC069F0180E05D0D890693368336733C6
:10182A006633E82EF9D764516627655167236651F6
:10183A00862767518723FF0EA815646FFF0EA91527
:10184A00656F7F0EAA15666F000EAB15676FF30EF4
:10185A006425A86F040E6521A96F350E6621AA6F4B
:10186A003F0E6721AB6FA8C0A0F0A9C0A1F0AAC023
:10187A00A2F0ABC0A3F0A0C060F0A1C061F0A2C00A
:10188A0062F0A3C063F060C02AF061C02BF062C0AE
:10189A002CF063C02DF0000E2E6E000E2F6E800EFF
:1018AA00306EBF0E316E12EC10F02AC0A4F02BC0BD
:1018BA00A5F02CC0A6F02DC0A7F0A4C042F0A5C088
:1018CA0043F0A6C044F0A7C045F0000E2E6E000EED
:1018DA002F6E000E306E400E316EA4C02AF0A5C0E5
:1018EA002BF0A6C02CF0A7C02DF012EC10F02AC0E5
:1018FA0046F02BC047F02CC048F02DC049F098ECB8
:10190A0011F042C090F043C091F044C092F045C03B
:10191A0093F090C011F091C012F092C013F093C0EE
:10192A0014F090C015F091C016F092C017F093C051
:10193A0018F069EC0EF011C094F012C095F013C0C3
:10194A0096F014C097F094C011F095C012F096C0AA
:10195A0013F097C014F094C015F095C016F096C015
:10196A0017F097C018F069EC0EF011C098F012C089
:10197A0099F013C09AF014C09BF0130E2E6ECE0E7F
:10198A002F6ECC0E306E3E0E316E260E156E9E0EEA
:10199A00166E780E176E3E0E186E98C011F099C02A
:1019AA0012F09AC013F09BC014F069EC0EF011C04B
:1019BA002AF012C02BF013C02CF014C02DF012EC38
:1019CA0010F02AC09CF02BC09DF02CC09EF02DC0B8
:1019DA009FF09CC011F09DC012F09EC013F09FC0F2
:1019EA0014F098C015F099C016F09AC017F09BC071
:1019FA0018F069EC0EF011C06EF012C06FF013C04F
:101A0A0070F014C071F0AA0E2E6EAA0E2F6E2A0E56
:101A1A00306E3F0E316EEE0E156EE90E166E910E99
:101A2A00176E3E0E186E98C011F099C012F09AC047
:101A3A0013F09BC014F069EC0EF011C02AF012C02A
:101A4A002BF013C02CF014C02DF012EC10F02AC0A9
:101A5A009CF02BC09DF02CC09EF02DC09FF09CC026
:101A6A0011F09DC012F09EC013F09FC014F094C0F4
:101A7A0015F095C016F096C017F097C018F069ECEB
:101A8A000EF011C072F012C073F013C074F014C0DB
:101A9A0075F072C02AF073C02BF074C02CF075C0B8
:101AAA002DF06EC02EF06FC02FF070C030F071C0F4
:101ABA0031F012EC10F02AC06AF02BC06BF02CC087
:101ACA006CF02DC06DF0000E156E000E166E000E35
:101ADA00176E3F0E186EA4C011F0A5C012F0A6C072
:101AEA0013F0A7C014F069EC0EF011C09CF012C0FC
:101AFA009DF013C09EF014C09FF09CC011F09DC0D1
:101B0A0012F09EC013F09FC014F0A4C015F0A5C037
:101B1A0016F0A6C017F0A7C018F069EC0EF011C0B5
:101B2A0088F012C089F013C08AF014C08BF086C006
:101B3A0003F087C004F0000E04BEFF0E056E066EA9
:101B4A00010ED1EC18F003C08CF004C08DF005C072
:101B5A008EF006C08FF090C015F091C016F092C0BA
:101B6A0017F093C018F06AC02EF06BC02FF06CC04B
:101B7A0030F06DC031F088C02AF089C02BF08AC0DD
:101B8A002CF08BC02DF012EC10F02AC011F02BC0F3
:101B9A0012F02CC013F02DC014F069EC0EF011C035
:101BAA0076F012C077F013C078F014C079F0D10E35
:101BBA00156EF70E166E170E176E370E186E8CC04E
:101BCA0011F08DC012F08EC013F08FC014F069ECC2
:101BDA000EF011C02EF012C02FF013C030F014C056
:101BEA0031F076C02AF077C02BF078C02CF079C09B
:101BFA002DF012EC10F02AC07AF02BC07BF02CC02A
:101C0A007CF02DC07DF088C03EF089C03FF08AC0CC
:101C1A0040F08BC041F07AC03AF07BC03BF07CC008
:101C2A003CF07DC03DF011EC1FF03AC07EF03BC0A5
:101C3A007FF03CC080F03DC081F0A4C02EF0A5C06A
:101C4A002FF0A6C030F0A7C031F07EC02AF07FC0C6
:101C5A002BF080C02CF081C02DF012EC10F02AC0BD
:101C6A0082F02BC083F02CC084F02DC085F082C096
:101C7A002AF083C02BF084C02CF085C02DF0800E92
:101C8A00156E710E166E310E176E3F0E186E8CC0E1
:101C9A0011F08DC012F08EC013F08FC014F069ECF1
:101CAA000EF011C02EF012C02FF013C030F014C085
:101CBA0031F012EC10F02AC060F02BC061F02CC099
:101CCA0062F02DC063F012001450800B1D6E145088
:101CDA001424236E13BE23802350D8B40DD0232896
:101CEA00D8A408D0000E116E000E126E000E136EEC
:101CFA00000E146E138E08D0000E116E000E126EB6
:101D0A00000E136E000E146E1850800B1D1A185018
:101D1A001824226E17BE22802250D8B40DD0222851
:101D2A00D8A408D0000E156E000E166E000E176E9F
:101D3A00000E186E178E08D0000E156E000E166E65
:101D4A00000E176E000E186E2250D8B403D023501E
:101D5A00D8A409D0000E116E000E126E000E136E7A
:101D6A00000E146E120017501102F3CF28F0F4CFB0
:101D7A0029F028501E6E1F6A206A216A2950246E93
:101D8A00256A266A276A16501202F3CF28F0F4CF82
:101D9A0029F028501E26000E1F2220222122295017
:101DAA002426000E25222622272215501302F3CFBD
:101DBA0028F0F4CF29F028501E26000E1F222022D8
:101DCA00212229502426000E25222622272220C03D
:101DDA0021F01FC020F01EC01FF01E6A155012020B
:101DEA00F3CF28F0F4CF29F028501E2629501F22BD
:101DFA00000E2022000E212216501102F3CF28F0E5
:101E0A00F4CF29F028501E2629501F22000E202226
:101E1A00000E212220C021F01FC020F01EC01FF09A
:101E2A001E6A15501102F3CF28F0F4CF29F028507A
:101E3A001E2629501F22000E2022000E2122175092
:101E4A001202F3CF28F0F4CF29F028502426295083
:101E5A002522000E2622000E272216501302F3CF47
:101E6A0028F0F4CF29F02850242629502522000EE4
:101E7A002622000E272217501302F3CF28F0F4CFA0
:101E8A0029F02850196E29501A6E1B6A1C6A1BC049
:101E9A001CF01AC01BF019C01AF0196A195024262E
:101EAA001A5025221B5026221C5027221EC019F028
:101EBA001FC01AF020C01BF021C01CF0190E05D05B
:101ECA00D8901C321B321A321932E82EF9D719501F
:101EDA0024261A5025221B5026221C50272220C0B5
:101EEA0021F01FC020F01EC01FF01E6A225023C01E
:101EFA0019F01A6A1926000E1A22820E1924286E5F
:101F0A00FF0E1A20296E0FD0D89024362536263691
:101F1A00273621BE2480D8901E361F362036213619
:101F2A002806D8A0290626AEEFD7000E226E21AECB
:101F3A0017D0FF0E1E14196EFF0E1F141A6EFF0E15
:101F4A0020141B6E7F0E21141C6E19501A101B10C0
:101F5A001C10D8B403D0010E226E02D024B0FBD7D5
:101F6A002250D8B41FD0010E2426000E2522262284
:101F7A00272227A017D024C019F025C01AF026C09E
:101F8A001BF027C01CF01C341C321B321A321932C7
:101F9A0019C024F01AC025F01BC026F01CC027F077
:101FAA00284A292A29BE0DD0295003E12828D8A079
:101FBA0008D0000E246E000E256E800E266E7F0E4F
:101FCA0020D029BE05D029500EE12804D8B00BD064
:101FDA00000E246E000E256E000E266E000E276E71
:101FEA00000E1D6E0FD028C023F0FF0E2416FF0E20
:101FFA0025167F0E2616000E271623B0268ED89099
:10200A002330276E1D50271224C011F025C012F06C
:10201A0026C013F027C014F012002D50800B366E24
:10202A002D502D24386E2CBE38803850D8B40DD09F
:10203A003828D8A408D0000E2A6E000E2B6E000E87
:10204A002C6E000E2D6E2C8E06D0000E2A6E000EFF
:10205A002B6E000E2C6E000E2D6E3150800B376EDB
:10206A0036503718D8A4368C31503124376E30BEEA
:10207A0037803750D8B40DD03728D8A408D0000EEE
:10208A002E6E000E2F6E000E306E000E316E308EE8
:10209A0006D0000E2E6E000E2F6E000E306E000E51
:1020AA00316E3850375CD8B022D036AC02D0800EB0
:1020BA00361A38C039F037C038F039C037F02AC07C
:1020CA0039F02EC02AF039C02EF02BC039F02FC0BB
:1020DA002BF039C02FF02CC039F030C02CF039C0A9
:1020EA0030F02DC039F031C02DF039C031F0000E7A
:1020FA00396E385037C032F0336A325E000E335AC6
:10210A0033BE2CD0335004E11A0E325CD8A026D04C
:10211A002A502B102C102D10D8B402D0010E01D049
:10212A00000E396E000E2A6E000E2B6E000E2C6EFB
:10213A00000E2D6E37C038F015D039A005D0D890D2
:10214A0039300109396E02D0D89039322AB0398E25
:10215A002D342D322C322B322A32382A3750385C21
:10216A00D8A0EBD736BC28D03850D8A409D0000E56
:10217A002A6E000E2B6E000E2C6E000E2D6E1200B3
:10218A002E502A262F502B2230502C2231502D220D
:10219A002DA071D039A005D0D89039300109396EF7
:1021AA0002D0D89039322AB0398E2D342D322C32C1
:1021BA002B322A32382A5FD02E502A5C2F502B58C5
:1021CA0030502C582D50800A326E3150800A3258C5
:1021DA00D8B025D02A502E5C326E2B502F58336E31
:1021EA002C503058346E2D503158356EFF0E322433
:1021FA002A6EFF0E33202B6EFF0E34202C6EFF0E3C
:10220A0035202D6E800E361A396C3950D8A40FD06D
:10221A00010E2A26000E2B222C222D2208D02E5007
:10222A002A5E2F502B5A30502C5A31502D5A2A5090
:10223A002B102C102D10D8A41CD03950D8A419D08A
:10224A00000E2A6E000E2B6E000E2C6E000E2D6EE6
:10225A001200D8902A362B362C362D3639BE2A80D3
:10226A0039A002D0D88001D0D89039363850D8A4B5
:10227A0038062CAEEED7000E376E39AE0BD039C009
:10228A0032F07F0E3216D8B403D0010E376E02D068
:10229A002AB0FBD73750D8B420D0010E2A26000E18
:1022AA002B222C222D222DA018D02AC032F02BC08E
:1022BA0033F02CC034F02DC035F035343532343299
:1022CA003332323232C02AF033C02BF034C02CF011
:1022DA0035C02DF03828D8A4382A3828D8B403D0E5
:1022EA003850D8A40DD0000E2A6E000E2B6E000EA8
:1022FA002C6E000E2D6E3850D8A402D0000E366E09
:10230A0038A002D02C8E01D02C9ED89038302D6E59
:10231A0036BE2D8E2AC02AF02BC02BF02CC02CF0F2
:10232A002DC02DF012004550800B526E45504524A9
:10233A00596E44BE59805950D8B40DD05928D8A4E2
:10234A0008D0000E426E000E436E000E446E000E60
:10235A00456E448E06D0000E426E000E436E000E8D
:10236A00446E000E456E4950800B521A495049245A
:10237A005A6E48BE5A805A50D8B40DD05A28D8A49A
:10238A0008D0000E466E000E476E000E486E000E14
:10239A00496E488E06D0000E466E000E476E000E3D
:1023AA00486E000E496E4650471048104910D8A48E
:1023BA0017D0000E426E000E436E000E446E000EE1
:1023CA00456E800E44127F0E45125250451242C08D
:1023DA0042F043C043F044C044F045C045F0120007
:1023EA005950D8A409D0000E426E000E436E000E5A
:1023FA00446E000E456E12005A5059C04AF04B6A9C
:10240A004A5E000E4B5A7F0E4A24536E000E4B2032
:10241A00546E42C04EF043C04FF044C050F045C025
:10242A0051F0000E426E000E436E000E446E000E16
:10243A00456E000E556E000E566E000E576E000E5B
:10244A00586E000E5A6E28D05A50D8B411D0D8906F
:10245A004E364F3650365136D89042364336443689
:10246A00453658BE4280D890553656365736583675
:10247A0046504E5C47504F58485050584950515852
:10248A00D8A009D0588C46504E5E47504F5A4850F3
:10249A00505A4950515A5A2A190E5A64D5D74E5091
:1024AA004F1050105110D8B411D055800FD0D89079
:1024BA00423643364436453658BE4280D890553661
:1024CA005636573658365306D8A0540644AEEFD778
:1024DA00000E5A6E58AE17D0FF0E55144A6EFF0EF4
:1024EA0056144B6EFF0E57144C6E7F0E58144D6ED9
:1024FA004A504B104C104D10D8B403D0010E5A6EEE
:10250A0002D042B0FBD75A50D8B41FD0010E42268F
:10251A00000E43224422452245A017D042C04AF069
:10252A0043C04BF044C04CF045C04DF04D344D32E1
:10253A004C324B324A324AC042F04BC043F04CC094
:10254A0044F04DC045F0534A542A54BE10D054505A
:10255A0003E15328D8A00BD0000E546E5368000E26
:10256A00426E000E436E000E446E000E456E54BE5F
:10257A0005D0545011E15304D8B00ED0000E546E59
:10258A00000E536E000E426E000E436E000E446E35
:10259A00000E456E000E526E53C059F059A002D07B
:1025AA00448E01D0449ED8905930456E0ED720C033
:1025BA0038F021C039F022C03AF023C03BF024C0E1
:1025CA003CF025C03DF026C03EF027C03FF03FAEAC
:1025DA0002D0010E01D0000E366E376A365037101F
:1025EA00D8B410D03F1E3E1E3D1E3C1E3B1E3A1E56
:1025FA00391E386C000E39223A223B223C223D22F7
:10260A003E223F220001F7AF5B92F7BF05D0F75198
:10261A0008E1F605D8B005D0000E336E010E326E11
:10262A0004D0F6C032F0F7C033F0F4C034F0F5C08D
:10263A0035F036503710D8A402D05BA403D0340644
:10264A00D8A03506000E416E1F0E406E000E010125
:10265A002E6F7CD04006D8A041060F0E4024D96EBA
:10266A00010E4120DA6E38C003F039C004F03AC0D6
:10267A0005F03BC006F03CC007F03DC008F03EC084
:10268A0009F03FC00AF00A0E0B6E000E0C6E000E27
:10269A000D6E000E0E6E000E0F6E000E106E000E06
:1026AA00116E000E126E05EC1AF003C028F004C079
:1026BA0029F005C02AF006C02BF007C02CF008C08C
:1026CA002DF009C02EF00AC02FF028C015F02AC03C
:1026DA0016F008EC20F01550300FDF6E3206D8A045
:1026EA0033063406D8A0350638C003F039C004F0E2
:1026FA003AC005F03BC006F03CC007F03DC008F008
:10270A003EC009F03FC00AF00A0E0B6E000E0C6EB6
:10271A00000E0D6E000E0E6E000E0F6E000E106E85
:10272A00000E116E000E126E8DEC17F003C038F019
:10273A0004C039F005C03AF006C03BF007C03CF0CF
:10274A0008C03DF009C03EF00AC03FF041BE1FD0AC
:10275A00415003E14004D8A01AD0385039103A1039
:10276A003B103C103D103E103F10D8A473D733BE27
:10277A0005D0335002E13204D8B06CD735BE07D049
:10278A00355003E13404D8A002D05BB263D7365087
:10279A003710D8A402D05BA417D04006D8A04106AF
:1027AA0036503710D8A404D0000E316E2B0E03D049
:1027BA00000E316E2D0E306E0F0E4024D96E010EB2
:1027CA004120DA6E30C0DFFF1EC013F01FC014F0C4
:1027DA000F0E4024156E010E4120166E34C017F0FC
:1027EA0035C018F01AEC1EF013C01EF014C01FF00A
:1027FA0012000001F7AF5B92F7BF05D0F75108E16D
:10280A00F605D8B005D0000E366E010E356E04D02E
:10281A00F6C035F0F7C036F0F4C037F0F5C038F03E
:10282A005BA804D0FE0E3726FF0E382220C039F0EE
:10283A0021C03AF022C03BF023C03CF024C03DF056
:10284A0025C03EF026C03FF027C040F0000E426E81
:10285A001F0E416E000E01012E6F93D04106D8A0C3
:10286A0042060F0E3914436E446A44BE08D04450DF
:10287A0004E10A0E435CD8A002D0570E01D0300EF4
:10288A004324436E000E4420446EBF0E296EFF0E91
:10289A002A6E28502B6E2C6A29502B262A502C225D
:1028AA002C5006E11A0E2B5CD8B002D0010E01D0D2
:1028BA00000E316E326A31503210D8B427D09F0ED2
:1028CA00296EFF0E2A6E200E43102B6E000E441046
:1028DA002C6E29502B262A502C222C5006E11A0E37
:1028EA002B5CD8B002D0010E01D0000E336E346AD0
:1028FA0033503410D8B40AD043C009F044C00AF0A7
:10290A00ECEC1EF009C043F00AC044F00F0E41245B
:10291A00D96E010E4220DA6E43C0DFFF3506D8A019
:10292A0036063706D8A0380639C029F03AC02AF048
:10293A003BC02BF03CC02CF03DC02DF03EC02EF029
:10294A003FC02FF040C030F0050E09D0D890303289
:10295A002F322E322D322C322B322A322932E82EC5
:10296A00F5D729C039F02AC03AF02BC03BF02CC069
:10297A003CF02DC03DF02EC03EF02FC03FF030C0DD
:10298A0040F042BE20D0425004E1020E415CD8A081
:10299A001AD039503A103B103C103D103E103F10EF
:1029AA004010D8A45BD736BE05D0365002E13504B4
:1029BA00D8B054D738BE07D0385003E13704D8A06E
:1029CA0002D05BB24BD75BA816D04106D8A042060C
:1029DA000F0E4124D96E010E4220DA6E28C0DFFFA5
:1029EA004106D8A042060F0E4124D96E010E42209C
:1029FA00DA6E300EDF6E1EC013F01FC014F00F0E19
:102A0A004124156E010E4220166E37C017F038C0E9
:102A1A0018F01AEC1EF013C01EF014C01FF01200BA
:102A2A00ACC003F0ADC004F0056A066A000ED1EC32
:102A3A0018F003C0AEF004C0AFF005C0B0F006C095
:102A4A00B1F0AEC060F0AFC061F0B0C062F0B1C02A
:102A5A0063F0F0EC0AF060C0C2F061C0C3F062C07B
:102A6A00C4F063C0C5F0C2C015F0C3C016F0C4C03C
:102A7A0017F0C5C018F008C111F009C112F00AC157
:102A8A0013F00BC114F069EC0EF011C0B2F012C0D1
:102A9A00B3F013C0B4F014C0B5F0C2C015F0C3C08F
:102AAA0016F0C4C017F0C5C018F0B2C011F0B3C018
:102ABA0012F0B4C013F0B5C014F069EC0EF011C0F6
:102ACA00B6F012C0B7F013C0B8F014C0B9F000C124
:102ADA002EF001C12FF002C130F003C131F0C2C0A3
:102AEA0015F0C3C016F0C4C017F0C5C018F004C171
:102AFA0011F005C112F006C113F007C114F069EC18
:102B0A000EF011C02AF012C02BF013C02CF014C022
:102B1A002DF012EC10F02AC0BAF02BC0BBF02CC07A
:102B2A00BCF02DC0BDF0C2C015F0C3C016F0C4C0C1
:102B3A0017F0C5C018F0B6C011F0B7C012F0B8C08F
:102B4A0013F0B9C014F069EC0EF011C02EF012C0E7
:102B5A002FF013C030F014C031F0BAC02AF0BBC055
:102B6A002BF0BCC02CF0BDC02DF012EC10F02AC026
:102B7A0046F02BC047F02CC048F02DC049F0000E9B
:102B8A00426E000E436E800E446E3F0E456E98EC08
:102B9A0011F042C0BEF043C0BFF044C0C0F045C00F
:102BAA00C1F0330E2E6E930E2F6E880E306EC30E4A
:102BBA00316EBEC02AF0BFC02BF0C0C02CF0C1C01D
:102BCA002DF012EC10F02AC060F02BC061F02CC07E
:102BDA0062F02DC063F068EC1CF000016051120035
:102BEA000001F7AF5B92F7BF05D0F75108E1F60590
:102BFA00D8B005D0000E316E010E306E04D0F6C08A
:102C0A0030F0F7C031F0F4C032F0F5C033F020C034
:102C1A0034F021C035F022C036F023C037F024C08A
:102C2A0038F025C039F026C03AF027C03BF0000E34
:102C3A003D6E1F0E3C6E000E01012E6F76D03C06D3
:102C4A00D8A03D060F0E3C24D96E010E3D20DA6E47
:102C5A0034C003F035C004F036C005F037C006F0C2
:102C6A0038C007F039C008F03AC009F03BC00AF092
:102C7A000A0E0B6E000E0C6E000E0D6E000E0E6E1E
:102C8A00000E0F6E000E106E000E116E000E126E08
:102C9A001EEC1DF003C028F004C029F005C02AF07C
:102CAA0006C02BF007C02CF008C02DF009C02EF08A
:102CBA000AC02FF02850300FDF6E3006D8A0310638
:102CCA003206D8A0330634C003F035C004F036C04B
:102CDA0005F037C006F038C007F039C008F03AC02E
:102CEA0009F03BC00AF00A0E0B6E000E0C6E000EC5
:102CFA000D6E000E0E6E000E0F6E000E106E000EA0
:102D0A00116E000E126E01EC1CF003C034F004C008
:102D1A0035F005C036F006C037F007C038F008C0F5
:102D2A0039F009C03AF00AC03BF03C503D10D8B423
:102D3A001AD03450351036103710381039103A106E
:102D4A003B10D8A47CD731BE05D0315002E1300403
:102D5A00D8B075D733BE07D0335003E13204D8A0B8
:102D6A0002D05BB26CD71EC013F01FC014F00F0E56
:102D7A003C24156E010E3D20166E32C017F033C08A
:102D8A0018F01AEC1EF013C01EF014C01FF0120047
:102D9A000001F7AF5B92F7BF05D0F75108E1F605DE
:102DAA00D8B005D0000E316E010E306E04D0F6C0D8
:102DBA0030F0F7C031F0F4C034F0F5C035F020C07F
:102DCA0036F021C037F022C038F023C039F024C0D1
:102DDA003AF025C03BF026C03CF027C03DF0000E7B
:102DEA003F6E1F0E3E6E000E01012E6F000E336EF7
:102DFA00000E326E43D03E06D8A03F06070E3614A8
:102E0A00326E336A0F0E3E24D96E010E3F20DA6EFF
:102E1A003250300FDF6E3006D8A031063406D8A003
:102E2A00350636C028F037C029F038C02AF039C034
:102E3A002BF03AC02CF03BC02DF03CC02EF03DC028
:102E4A002FF0040E09D0D8902F322E322D322C3288
:102E5A002B322A3229322832E82EF5D728C036F00A
:102E6A0029C037F02AC038F02BC039F02CC03AF00C
:102E7A002DC03BF02EC03CF02FC03DF03FBE1FD00E
:102E8A003F5003E13E04D8A01AD03650371038100C
:102E9A0039103A103B103C103D10D8A4ACD731BEC3
:102EAA0005D03150A8E13004D8B0A5D735BE07D037
:102EBA00355003E13404D8A002D05BB29CD75BA89A
:102ECA0012D032503310D8B40ED03E06D8A03F06E6
:102EDA000F0E3E24D96E010E3F20DA6E300EDF6EE1
:102EEA003406D8A035061EC013F01FC014F00F0E0A
:102EFA003E24156E010E3F20166E34C017F035C001
:102F0A0018F01AEC1EF013C01EF014C01FF01200C5
:102F1A00000E146E12AE12D0121E111E101E0F1EBB
:102F2A000E1E0D1E0C1E0B6C000E0C220D220E2204
:102F3A000F22102211221222010E146E0AAE12D092
:102F4A000A1E091E081E071E061E051E041E036C05
:102F5A00000E0422052206220722082209220A223A
:102F6A00010E141A20EE15F0070EDE6AE806FDE2DD
:102F7A000B500C100D100E100F1010101110121013
:102F8A00D8B446D0010E136E0AD0D8900B360C3640
:102F9A000D360E360F36103611361236132A12AE89
:102FAA00F4D7D890153616361736183619361A3613
:102FBA001B361C360B50035C0C5004580D50055838
:102FCA000E5006580F5007581050085811500958FB
:102FDA0012500A58D8A011D00B50035E0C50045A54
:102FEA000D50055A0E50065A0F50075A1050085ADB
:102FFA001150095A12500A5A1580D89012321132B9
:10300A0010320F320E320D320C320B32132EC9D758
:10301A001450D8B410D01C1E1B1E1A1E191E181EBE
:10302A00171E161E156C000E1622172218221922B8
:10303A001A221B221C2215C003F016C004F017C066
:10304A0005F018C006F019C007F01AC008F01BC036
:10305A0009F01CC00AF01200000E186E000E176E5E
:10306A00000E116E000E106E02D00A4A0B2A010ED3
:10307A00166E0AC0F6FF0BC0F7FF0800F550200ACB
:10308A00D8B418D0F70E0C6EFF0E0D6E0AC0F6FFFC
:10309A000BC0F7FF0800F5500E6E0F6A0C500E2693
:1030AA000D500F220F5004E1050E0E5CD8A002D07D
:1030BA00000E166E16C012F0136A12501310D8B40E
:1030CA0008D0D3D7000E116E010E106E0A4A0B2AD1
:1030DA002ED00AC0F6FF0BC0F7FF0800F5500C6EA1
:1030EA000D6A0D50000AD8A422D00C502B0AD8B46D
:1030FA00EDD7060AD8B4E6D71AD017C003F018C01D
:10310A0004F0000E066E0A0E056ED6EC20F00AC018
:10311A00F6FF0BC0F7FF0800F550035E000E045AD5
:10312A00300E0324176E000E0420186ECFD7D00E6F
:10313A000C6EFF0E0D6E0AC0F6FF0BC0F7FF0800FB
:10314A00F5500E6E0F6A0C500E260D500F220F50BE
:10315A0006E10A0E0E5CD8B002D0010E01D0000EB4
:10316A00146E156A14501510D8A4C7D71050111030
:10317A00D8A40DD017C00CF018C00DF00C1E0D1EEF
:10318A000C4A0D2A0CC00AF00DC00BF0120017C031
:10319A000AF018C00BF012000B6E0B50D8A406AE42
:1031AA001AD003C007F004C008F005C009F006C031
:1031BA000AF0071E081E091E0A1E072A000E082208
:1031CA0009220A2207C00DF008C00EF009C00FF04C
:1031DA000AC010F008D003C00DF004C00EF005C0FC
:1031EA000FF006C010F00350041005100610D8A402
:1031FA0009D0000E036E000E046E000E056E000E5E
:10320A00066E1200960E0C6E06D00C2AD89010325A
:10321A000F320E320D32000E0D14076E000E0E1410
:10322A00086E000E0F14096EFE0E10140A6E075077
:10323A00081009100A10D8B40DD0E7D70C2A010ECD
:10324A000D26000E0E220F221022D89010320F32B5
:10325A000E320D32000E0D14076E000E0E14086E9B
:10326A00000E0F14096EFF0E10140A6E0750081094
:10327A0009100A10D8B407D0E1D70C06D8900D3639
:10328A000E360F3610360FBE03D0020E0C60F5D77D
:10329A000CA00F9ED8900C320CC007F0086A096A7D
:1032AA000A6A07C00AF0096A086A076A07500D1213
:1032BA0008500E1209500F120A5010120B50D8A4BF
:1032CA0006AE01D0108E0DC003F00EC004F00FC080
:1032DA0005F010C006F0120021EE36F010EE11F0E3
:1032EA00060EDBCFE3FFE806FCE20EC01CF00FC0BF
:1032FA001DF01C501D10D8A404D0110E1C6E000E17
:10330A001D6E1CC003F01DC004F099EC20F003C030
:10331A0020F004C021F0F6C01EF0F7C01FF01FBE57
:10332A000ED020501E5C1F50800A106E2150800A59
:10333A001058D8B004D01EC020F01FC021F020C001
:10334A001EF021C01FF0F4C01AF0F5C01BF05BA0FC
:10335A000DD016D0000E046E200E036E0CC005F0C0
:10336A000DC006F0CAEC1DF0204A212A1A50205C32
:10337A002150800A106E1B50800A1058D8A0EAD734
:10338A00000E196E000E186E13D01CC0D9FF1DC096
:10339A00DAFFDF50106E1050036E046A0CC005F09D
:1033AA000DC006F0CAEC1DF01C4A1D2A184A192A3B
:1033BA001E50185C1950800A106E1F50800A10584F
:1033CA00D8A0E3D75BB00DD016D0000E046E200E45
:1033DA00036E0CC005F00DC006F0CAEC1DF0204AC1
:1033EA00212A1A50205C2150800A106E1B50800A34
:1033FA001058D8A0EAD720C00CF021C00DF0120056
:10340A00000E146E0AAE12D00A1E091E081E071EEE
:10341A00061E051E041E036C000E04220522062247
:10342A000722082209220A22010E146E12AE10D0B7
:10343A00121E111E101E0F1E0E1E0D1E0C1E0B6CD0
:10344A00000E0C220D220E220F221022112212220D
:10345A000B500C100D100E100F101010111012102E
:10346A00D8B43CD0010E136E0AD0D8900B360C3665
:10347A000D360E360F36103611361236132A12AEA4
:10348A00F4D70B50035C0C5004580D5005580E50DD
:10349A0006580F5007581050085811500958125022
:1034AA000A58D8A010D00B50035E0C50045A0D5085
:1034BA00055A0E50065A0F50075A1050085A115002
:1034CA00095A12500A5AD8901232113210320F3257
:1034DA000E320D320C320B32132ED3D71450D8B40D
:1034EA0010D00A1E091E081E071E061E051E041EEF
:1034FA00036C000E04220522062207220822092252
:10350A000A2203C003F004C004F005C005F006C097
:10351A0006F007C007F008C008F009C009F00AC0A1
:10352A000AF012002FC103F030C104F0056A066ADE
:10353A00000ED1EC18F003C011F004C012F005C05F
:10354A0013F006C014F0000E156E000E166EA00ED3
:10355A00176E3B0E186E69EC0EF011C0D7F012C050
:10356A00D8F013C0D9F014C0DAF0D7C03EF0D8C0F2
:10357A003FF0D9C040F0DAC041F0000E3A6E000EBA
:10358A003B6EA00E3C6E400E3D6E11EC1FF03AC031
:10359A0046F03BC047F03CC048F03DC049F0000E41
:1035AA00156E400E166E1C0E176E450E186ED7C09D
:1035BA0011F0D8C012F0D9C013F0DAC014F069ECD7
:1035CA000EF011C042F012C043F013C044F014C010
:1035DA0045F098EC11F042C060F043C061F044C07D
:1035EA0062F045C063F068EC1CF060C0D5F061C0C1
:1035FA00D6F0310E0001C66F010EC76F000EC96FFB
:10360A00040EC86F500ECA6F080ECB6FD5C0ACF04F
:10361A00D6C0ADF015EC15F00001D46FD451CC6FC3
:10362A00CD6B21EC20F0310E0001D26F010ED36F69
:10363A001200056E32D0770E12007C0E1200390E7F
:10364A0012005E0E1200790E1200710E12003F0E69
:10365A001200060E12005B0E12004F0E1200660ECA
:10366A0012006D0E12007D0E1200070E12007F0E60
:10367A0012006F0E12001B0EF66E080EF76E08008F
:10368A00F5501200230EF66E080EF76E0800F5507C
:10369A001200E10E1200F30E12000550036E046AC6
:1036AA000450000AD8A4F7D70350000AD8B4EAD7BE
:1036BA002A0AD8B4EED7040AD8B4DDD71E0AD8B479
:1036CA00C6D7010AD8B4C5D7030AD8B4C4D7010AE1
:1036DA00D8B4C3D7070AD8B4C2D7010AD8B4C1D755
:1036EA00030AD8B4C0D7010AD8B4BFD70F0AD8B4CE
:1036FA00BED7010AD8B4BDD7580AD8B49CD7030A92
:10370A00D8B49BD7010AD8B49AD7070AD8B499D79C
:10371A00010AD8B498D7030AD8B497D7090AD8B4F3
:10372A00B1D7B9D7800E00017E5DD8A007D0000EB0
:10373A00EF6F4B0EEE6F7B697C6912007BC087F0DE
:10374A007CC088F07E5104E1020E7D5DD8A00AD0CB
:10375A00FF0E7D258B6FFF0E7E218C6F000E8A6F08
:10376A00000E07D0000E8C6F010E8B6F000E8A6F51
:10377A00010E896F870E4F6E000E506E7FC051F09A
:10378A0080C052F081C053F082C054F099EC1EF010
:10379A004FC085F050C086F000017D517E11D8A43B
:1037AA0086BF25D0FF0E576EFF0E586E7DC059F0AA
:1037BA007EC05AF05750592658505A225950855DA2
:1037CA005A508659D8A007D0FF0E7D25836FFF0E69
:1037DA007E21846F04D085C083F086C084F0835133
:1037EA007B25D96E84517C21DA6E000EDF6E85C08E
:1037FA007BF086C07CF0120020EE13F0070EDE6A22
:10380A00E806FDE20B500C100D100E100F101010F0
:10381A0011101210D8B446D0010E1B6E0AD0D890DF
:10382A000B360C360D360E360F361036113612366A
:10383A001B2A12AEF4D7D89013361436153616361C
:10384A001736183619361A360B50035C0C500458C2
:10385A000D5005580E5006580F500758105008586A
:10386A001150095812500A58D8A011D00B50035EB3
:10387A000C50045A0D50055A0E50065A0F50075A4A
:10388A001050085A1150095A12500A5A1380D890E7
:10389A001232113210320F320E320D320C320B321A
:1038AA001B2EC9D713C003F014C004F015C005F0CD
:1038BA0016C006F017C007F018C008F019C009F0C2
:1038CA001AC00AF01200000162356335696F695146
:1038DA00D8A409D0000E606F000E616F000E626FEF
:1038EA00000E636F120060C064F061C065F062C0D0
:1038FA0066F063C067F0200E05D0D8906733663350
:10390A0065336433E82EF9D76451686F628FFF0E0E
:10391A006017FF0E6117FF0E6217000E6317960EEF
:10392A00695F69AF0DD06951800A970FD8A0D2D7C5
:10393A00D8906333623361336033693FF9D70DD06E
:10394A001F0E696507D0C6D7D890603761376237CE
:10395A00633769076951D8A4F7D76851D8B408D032
:10396A00631F621F611F606D000E61236223632360
:10397A0060C060F061C061F062C062F063C063F071
:10398A001200DDC003F0DEC004F099EC20F0035011
:10399A000001E36F200EE46FE3C0DFF0050EDF27BE
:1039AA00E4C0E0F0DF2B02D0D890E033DF2FFCD761
:1039BA000001E3510308E16FE4C0E2F0E12B02D019
:1039CA00D890E237E12FFCD70001E251E01120D074
:1039DA008A98DDC0D9FFDEC0DAFFDF501EEC1BF08B
:1039EA0057EC1FF00001DD4BDE2BE00E8A128A50E5
:1039FA00F00B08098A6E8A50F00B8A6E140EE82EB4
:103A0A00FED70001E451FF0A8A16D890E435E4355E
:103A1A00E46FE4C0DFF0E00EDF17D8A4D9D76F0E49
:103A2A0057EC1FF00D0EE82EFED700F0E00E8A12BA
:103A3A0012000B500C100D100E100F101010111058
:103A4A001210D8B43CD0010E136E0AD0D8900B369F
:103A5A000C360D360E360F36103611361236132A3C
:103A6A0012AEF4D70B50035C0C5004580D50055895
:103A7A000E5006580F500758105008581150095840
:103A8A0012500A58D8A010D00B50035E0C50045A9A
:103A9A000D50055A0E50065A0F50075A1050085A20
:103AAA001150095A12500A5AD89012321132103251
:103ABA000F320E320D320C320B32132ED3D703C013
:103ACA0003F004C004F005C005F006C006F007C004
:103ADA0007F008C008F009C009F00AC00AF012008D
:103AEA0003C00AF004C00BF005C00CF006C00DF0CC
:103AFA000706D8A0080607280FE10828D8A40CD082
:103B0A00000E046E000E036E12000A4A0B2A0C4ABB
:103B1A000D2A0706D8A008060AC0F6FF0BC0F7FF51
:103B2A000800F5500009D8B41DD00CC0F6FF0DC02E
:103B3A00F7FF0800F5500009D8B414D00750081050
:103B4A00D8B410D00AC0F6FF0BC0F7FF0800F5CFB3
:103B5A0009F00CC0F6FF0DC0F7FF0800F550091870
:103B6A00D8B4D3D70AC0F6FF0BC0F7FF0800F5CFC9
:103B7A0009F00CC0F6FF0DC0F7FF0800F550095C0C
:103B8A00036E046AD8A00406120005500610D8B4C1
:103B9A0004D005500610D8A404D0035029EC21F013
:103BAA00120020EE04F00550D9260650DA22DE5023
:103BBA00DE10D8B416D020EE04F00550D9260650EF
:103BCA00DA2210EE02F00550E1260650E222DE501B
:103BDA00E65CE650800A0B6EDE50800A0B58D8B0BD
:103BEA00120020EE02F00550D9260650DA22DECF66
:103BFA0007F0DDCF08F005C0D9FF06C0DAFFDECF37
:103C0A0009F0DDCF0AF007500924D96E08500A20BE
:103C1A00DA6E03C0DFFF20EE02F00550D926065007
:103C2A00DA22DE2A000EDD2212005BA00AD015C0BD
:103C3A000CF016C00DF013C00EF014C00FF0B8EC63
:103C4A001FF018BE05D017C01CF018C01DF004D014
:103C5A00000E1D6E000E1C6E000E1B6E000E1A6EFC
:103C6A000CD0000E046E200E036E13C005F014C0B3
:103C7A0006F0CAEC1DF01A4A1B2A1C501A5C1B508B
:103C8A00800A196E1D50800A1958D8A0EAD75BB06D
:103C9A000AD015C00CF016C00DF013C00EF014C0F7
:103CAA000FF0B8EC1FF015C003F016C004F099EC41
:103CBA0020F01C500324136E1D500420146E1200B1
:103CCA00480EF66E420EF76E000EF86E01EE36F0F2
:103CDA0010EE07F00900F5CFEEFFE550E150FAE1EA
:103CEA004F0EF66E420EF76E000EF86E0900F5CF13
:103CFA00FCF00900F5CFFDF00900F5CFFEF001EE6A
:103D0A0000F0360EEE6AE806FDE100EEEAF0120E69
:103D1A00EE6AE806FDE15C6A5B6A5D905D92000E00
:103D2A00F86E0001E9EF20F051C055F052C056F08C
:103D3A00000E0001F36F000EF26F13D04FC045F072
:103D4A0050C046F0550E476E000E486E53C049F0FB
:103D5A0054C04AF035EC04F045500001F2274650B1
:103D6A00F32355C0F6FF56C0F7FF0800F5500009C7
:103D7A00D8A4E4D7F2C04FF0F3C050F0120000010B
:103D8A00F451F511D8A405D0F4C021F0F5C022F001
:103D9A0006D0FF0EF425216EFF0EF521226E20C0FB
:103DAA000FF1000E0101106F1EC013F01FC014F0B6
:103DBA000F0E156E010E166E21C017F022C018F0F4
:103DCA001AEC1EF013C01EF014C01FF012009F0E52
:103DDA000B6EFF0E0C6E09C00DF00AC00EF00B50F0
:103DEA000D260C500E220E5006E11A0E0D5CD8B0AC
:103DFA0002D0010E01D0000E0F6E106A0F50101083
:103E0A00D8B405D05F0E0914096E0A6A120009C0F7
:103E1A0009F00AC00AF01200000E3E1A000E3F1AFC
:103E2A00000E401A800E411A3AC02AF03BC02BF00D
:103E3A003CC02CF03DC02DF03EC02EF03FC02FF00C
:103E4A0040C030F041C031F012EC10F02AC03AF014
:103E5A002BC03BF02CC03CF02DC03DF01200C30E2D
:103E6A00C216C292C290C19AC198C150F00B0E09F3
:103E7A00C16EC08EC050C70B2009C06EC050F80B6F
:103E8A000109C06EC050F80B0109C06EC050C70BC3
:103E9A001009C06E00D000D000D092809E9C9D8CEC
:103EAA00F28E1200066EF00E8A168A84000E046ED6
:103EBA00000E036ED89006340634066E8A50FC0B48
:103ECA00056E0650010B0510056E05C08AFF8A8231
:103EDA00034A042A04BEEED7045005E1080E035C27
:103EEA00D8B01200E7D71200BF0E0101006F380EDA
:103EFA00016FA90E026F3A0E036F850E046F6D0EE5
:103F0A00056F560E066F390E076F320E086F120EC6
:103F1A00096F850E0A6F340E0B6F090E0E6FC40EF1
:103F2A000D6F050E0C6F1200010E096E200E03189C
:103F3A000410D8B414D0F70E056EFF0E066E03C037
:103F4A0007F004C008F0055007260650082208505A
:103F5A0004E1050E075CD8A002D0000E096E09C064
:103F6A0003F0046A1200000E126E000E116E0BD0DE
:103F7A0010C003F0046A0EC005F00FC006F0CAECC8
:103F8A001DF0114A122A11500C24D96E12500D201C
:103F9A00DA6EDF50106E1050D8B41200E9D79F0EB7
:103FAA00056EFF0E066E200E0310076E000E04103B
:103FBA00086E0550072606500822085006E11A0E18
:103FCA00075CD8B002D0010E01D0000E036E046A5D
:103FDA001200F2AA1200F2A41200F2940001FE2BBF
:103FEA001D0EFE6512001E0EFE5FFC4BFD2BE80E39
:103FFA00FC1908E1030EFD19D8A41200000EFD6F8A
:10400A00000EFC6F120016BE05D0165010E1150402
:10401A00D8B00DD015C017F016C018F0171E181E0C
:10402A00174A182A17C015F018C016F0120015C042
:10403A0015F016C016F01200CC0E0001D06F000E5B
:10404A00D16FC6C07BF0C7C07CF0C8C07DF0C9C0C4
:10405A007EF0CAC07FF0CBC080F0D00E816F000E18
:10406A00826F97EC1BF012009F0E056EFF0E066E14
:10407A0003C007F004C008F00550072606500822BE
:10408A00085006E11A0E075CD8B002D0010E01D022
:10409A00000E036E046A1200BF0E056EFF0E066E56
:1040AA0003C007F004C008F005500726065008228E
:1040BA00085006E11A0E075CD8B002D0010E01D0F2
:1040CA00000E036E046A1200D00E056EFF0E066E15
:1040DA0003C007F004C008F005500726065008225E
:1040EA00085006E10A0E075CD8B002D0010E01D0D2
:1040FA00000E036E046A12000600FACF01F0FBCF2D
:10410A0002F001D80BD005000101FA6E3D51FD6E97
:10411A003E51FE6EF850FF6EFA50120002C0FBFFCD
:10412A0001C0FAFF5D92110003C005F004C006F059
:10413A0002D0034A042A03C0D9FF04C0DAFFDF50C1
:10414A00D8A4F7D70550035C036E06500458046ED2
:10415A001200EEEC1FF00001FC51F01904E1FD51D0
:10416A00F119D8B412009EAC1200FCC0F0F0FDC0E8
:10417A00F1F09E9C1CEC21F0C28212000101355123
:10418A00D8B406D0310E0001DB6F010EDC6F1200CD
:10419A00010E356F97EC1AF0D2C0DBF0D3C0DCF019
:1041AA00120003500502F3CF07F0F4CF08F00350D2
:1041BA000602F350082604500502F350082607C0E9
:1041CA0003F008C004F0120007EC21F0F8EC20F02C
:1041DA0079EC1FF0C3EC20F0DBC0DDF0DCC0DEF0D0
:1041EA00C6EC1CF0F7D75C0E01013D6F410E3E6F25
:1041FA0012EC21F034EC1FF0C28000D000D000D0C5
:10420A00C2821200000E816E070EB46E0F0EC16ECE
:10421A00000E936E700ED36E12008F0ED56E000EC6
:10422A00D76E000ED66EF28AF28ED09E1200C3CFDF
:10423A002FF1C4CF30F1000E0101356F1200286E44
:0A424A00756C6C29000100011200E0
:020000040020DA
:08000000FFFFFFFFFFFFFFFF00
:020000040030CA
:0E00000000091F1EFF0181FF0FC00FE00F401F
:00000001FF
